:020000040800F2
:1000000000040020E3010008F1010008F3010008EA
:10001000F5010008F7010008F901000800000000E0
:10002000000000000000000000000000FB010008CC
:10003000FD01000800000000FF01000801020008A7
:100040009B240008030200080302000803020008C2
:100050000302000803020008B5220008030200089A
:10006000DF220008052300082923000803020008F6
:10007000030200080302000803020008030200084C
:10008000030200080302000803020008030200083C
:10009000030200080302000803020008030200082C
:1000A000030200080302000803020008030200081C
:1000B000D524000803020008030200080302000818
:1000C00003020008030200080302000803020008FC
:1000D000030200082D1D0008691F00080302000824
:1000E00003020008030200080302000803020008DC
:1000F00003020008030200080302000803020008CC
:100100000302000803020008B525000803020008E6
:1001100003020008030200080302000803020008AB
:10012000030200080302000803020008030200089B
:1001300000F002F800F03FF80AA090E8000C8244BA
:100140008344AAF10107DA4501D100F034F8AFF297
:10015000090EBAE80F0013F0010F18BFFB1A43F0A5
:1001600001031847A43C0000C43C0000103A24BF1F
:1001700078C878C1FAD8520724BF30C830C144BF0C
:1001800004680C607047000000230024002500264E
:10019000103A28BF78C1FBD8520728BF30C148BFEA
:1001A0000B607047642902F04F86002070471FB52E
:1001B0001FBD10B510BD02F011FF1146FFF7F7FF8C
:1001C00000F0ACFA02F02FFF03B4FFF7F2FF03BC1C
:1001D00001F0BCFE30BF72B662B680F3088870478B
:1001E00070470B4880470B4981F308880A4800474D
:1001F000FEE7FEE7FEE7FEE7FEE7FEE7FEE7FEE7D7
:10020000FEE7FEE705480649044A064B7047000032
:10021000E1010008C0D8002031010008C0D0002052
:10022000C0D80020C0D0002010B54FF4E1314820E4
:1002300001F00AFE4FF4E131242001F01CFF02F02E
:1002400005FD02F08EF801F0B1FF01F093FF4721A8
:1002500040F2DC5002F067FC40F2CF214FF4FA602C
:1002600002F01BFC0020F749088047214FF47A7008
:1002700002F0F1FB10BD2DE9F04141F2FB367700B1
:1002800047F2E278002432250020EF49086022E09E
:10029000EE48006830B9052001F099FBEB48006892
:1002A00000B919E0EA48006808B9012000E0002020
:1002B000E74908604FF01E0001F089FBE548D0F8DF
:1002C0009C0108B9012000E00020E14908604FF0DE
:1002D0001E0001F07CFBDBE700BF0120DA4908606B
:1002E0004FF0000419E0DA48006808B9012000E086
:1002F0000020D74908604FF01E0001F068FBD54888
:10030000D0F89C0108B9012000E00020D049086025
:100310004FF01E0001F05BFB641C47F2E270844268
:10032000E1DB0020CC49086020E0CC48006830B90F
:10033000052001F04CFBC948006800B917E0C84827
:10034000006808B9012000E00020C549086028467F
:1003500001F03DFBC348D0F8840108B9012000E05A
:100360000020BF490860284601F031FBDDE700BFEF
:100370000120B94908604FF000041DE041F2FB3054
:10038000001BC82800DA6425B548006808B90120B8
:1003900000E00020B2490860284601F018FBB1488F
:1003A000D0F8840108B9012000E00020AC490860C1
:1003B000284601F00CFB641C41F2FB308442DDDB7B
:1003C0000020A949086022E0A848006830B905204B
:1003D00001F0FDFAA548006800B919E0A4480068DA
:1003E00008B9012000E00020A14908604FF01E007C
:1003F00001F0EDFA9B48D0F8A00108B9012000E017
:1004000000209B4908604FF01E0001F0E0FADBE796
:1004100000BF0120944908604FF0000419E094489F
:10042000006808B9012000E00020914908604FF001
:100430001E0001F0CCFA8B48D0F8A00108B90120C9
:1004400000E000208A4908604FF01E0001F0BFFA6A
:10045000641C42F2F6708442E1DBBDE8F0812DE9D4
:10046000F05F43F2485842F24D19DFF808A244F217
:100470009A2B1A260F278048008828B97F480088C1
:1004800010B97F48008808B1FFF7F5FE00206E49DB
:100490000860044619E06E48006808B9012000E0D1
:1004A00000206B4908604FF03C0001F090FA694869
:1004B000D0F89C0108B9012000E0002064490860E0
:1004C0004FF03C0001F083FA641C43F24850844230
:1004D000E1DB0120644908604FF0000419E0644842
:1004E000006808B9012000E00020614908604FF071
:1004F0001E0001F06CFA5B48D0F8A00108B9012099
:1005000000E000205A4908604FF01E0001F05FFA39
:10051000641C45F63E508442E1DBAA20594908801C
:100520000025F1E01A260F270120474908604FF007
:10053000000419E04648006808B9012000E00020E6
:10054000434908604FF0280001F041FA4148D0F8D3
:100550009C0108B9012000E000203D4908604FF0EF
:10056000280001F034FA641C42F24D108442E1DBB1
:100570000120394908604FF000041CE03D48001B91
:10058000C82800DA50263648006808B9012000E083
:10059000002033490860304601F019FA3148D0F89C
:1005A000840108B9012000E000202D490860304690
:1005B00001F00DFA641C2F488442DFDB0020224941
:1005C0000860044619E02248006808B9012000E0EC
:1005D00000201F4908604FF0280001F0F8F91D487D
:1005E000D0F89C0108B9012000E0002018490860FB
:1005F0004FF0280001F0EBF9641C42F24D108442E8
:10060000E1DB0020144908604FF05007044642E047
:10061000C82C00DD0F271748001BC82800DA502718
:100620000F48006808B9012000E000200C4908606C
:10063000384601F0CCF90B48D0F8840108B9012004
:1006400023E021E0560000208C8122421401224246
:100650009C81214200802142848122420401224265
:100660008401214200002142888122420C01224261
:10067000A0012142DAEC01000E0000201000002051
:1006800012000020380400400020774908603846F6
:1006900001F09DF9641C75488442B9DB012074495E
:1006A00008604FF0000429E07248006810B17248F9
:1006B000006848B9052001F08AF96F48006810B158
:1006C0006C48006800B91DE06C48006808B901205A
:1006D00000E00020694908604FF01E0001F077F942
:1006E0006748D0F8A00108B9012000E00020634964
:1006F00008604FF01E0001F06AF9641C44F29A2071
:100700008442D1DB00BF6D1C082DFFF60BAF8220A9
:100710005C490880FFF7AFFDBDE8F09F1CB50024E1
:100720000025002600274FF0010800BF00200090A0
:100730000190092001F09EFA482001F02DF9FFF701
:1007400073FD17E04FF47A7001F05CF94E480068D1
:1007500008B9012000E000204B4908604B48D0F860
:10076000940108B9012000E000204949086006F121
:10077000010086B2042EE5DB0120434908604349AD
:10078000C1F89401684600F07FFAFFF774FDFFF7A7
:100790004BFD67E062E000203D4908603D49C1F83B
:1007A00094013D480078062804D1FFF758FE002048
:1007B0003949087039480078012816D1B8F1010F7D
:1007C00013D1374801883748008800F018FC60B121
:1007D00000F050FA48B134480088012805D10021C2
:1007E000052002F0CCF94FF0000800F0A8FA054609
:1007F000B5F5077F05DA00F0B2FA04460CB9781CAB
:1008000087B2274801882748008800F04AFC044640
:10081000C4F1C80084B2214624A002F0D5FA0A2C03
:1008200019DD642F06DD0027002D14DD284600F0B9
:100830004AFE10E0B8F1000F08D11848007828B936
:100840000121052002F09BF94FF001080A2D02DB7F
:100850000A2000F038FE0A2001F0B9F81748008895
:10086000002898D196E7000084012142DAEC0100CB
:1008700088812242080122420C012242A001214229
:1008800000002142380400409481214200002342AC
:10089000940123420080214200000020010000203A
:1008A000340000203200002074000020726573754F
:1008B0006C743A2025640D0A0D0000004E000020E3
:1008C00010B502460B460020002104E0545C0444AD
:1008D000E0B24C1CA1B29942F8DBC443E0B210BDB7
:1008E000FFB504460F460026B9A30FCB8DE80F00D5
:1008F0008DF80640012C26D1B9480088C0B28DF889
:100900000700B7490888C11700EB1161090A8DF883
:100910000810B4480088C0B28DF80900B1490888B1
:10092000C11700EB1161090A8DF80A10AE48008862
:10093000C0B28DF80B00AC490888C11700EB1161FB
:10094000090A8DF80C10032C01D0042C1CD1A748E7
:1009500000788DF80700A5490888C11700EB1161E0
:10096000090A8DF80810A24800788DF80900A049FE
:100970000888C11700EB1161090A8DF80A100020E0
:100980008DF80B008DF80C00022C01D0052C1CD129
:10099000984800788DF8070096490888C11700EB41
:1009A0001161090A8DF80810924880788DF80900C5
:1009B00090494888C11700EB1161090A8DF80A10A7
:1009C00000208DF80B008DF80C000A2101A8FFF71C
:1009D00077FF06468DF80E6000250CE000BF8648C4
:1009E000008810F0400FFAD01DF805008249091D5B
:1009F0000880681CC5B20F2DF0DBFFBD10B50023C9
:100A000000227E48008800F07F03581E7C4C205C4A
:100A10007C4C20707A4880797B4C2070042105E062
:100A20007748405C1044C2B2481C81B29942F7DB5F
:100A3000D043C2B2002A01DD002010BD0120FCE736
:100A400010B50246481C714B1B8890FBF3F403FB66
:100A50001400904201D1012010BD0020FCE70246A5
:100A6000914201D1012070470020FCE730B50346D8
:100A70000C46002521461846FFF7F1FF08B100207B
:100A800030BD624800882044C01A6049098890FB44
:100A9000F1F201FB120085B22846F1E770B55C481F
:100AA00001885C480088FFF7CBFF08B1002070BDCB
:100AB000002500245148008800F07F065448018832
:100AC00054480088FFF7D2FF05464D4880795249C7
:100AD00008704B48407B514908704948417B50A001
:100AE00002F072F949480088401B401E85B2072475
:100AF00044E000203F49464A128821F81200084687
:100B00004349098830F811003D4A611C515C084393
:100B100038493F4A128821F8120008463C490988A2
:100B200030F811004FF6FF7101EA00203149384AD0
:100B3000128821F8120008463549098830F811005A
:100B40002F49095D08432B49314A128821F81200C8
:100B50002F480088401C2D49098890FBF1F201FBC9
:100B600012002B490880601C84B235480088401C64
:100B700033490880681E85B2601C84B2B01EA04252
:100B800001DD002DB5DC012091E700B5204801888A
:100B900020480088FFF763FF10B14FF6FE7000BDDC
:100BA00014491C4A128831F812001A490988491C54
:100BB000164A128891FBF2F302FB1311154A1180B9
:100BC0001F490988491E1E4A118000BFE7E700003F
:100BD000FFFFFFFF08000000000000000000000011
:100BE0000E00002010000020120000201400002041
:100BF0001600002084000020003801403A00002048
:100C0000DCCD00200C0000200800002006000020A1
:100C1000040000200200002000000020010000204D
:100C200055534152545F52585F4255465B53544F9F
:100C3000505F53544152545D3A2025640D0A0D0013
:100C40000A0000200A8802804A8842808A888280BE
:100C5000704799480088401C40F2312190FBF1F226
:100C600001FB120095490988884201D10120704793
:100C70000020FCE7914800888F490988884201D10B
:100C8000012070470020FCE700B50346FFF7E1FFB5
:100C900008B1002000BD18888749098801EB41018F
:100CA000874A22F8110058888349098801EB4101DD
:100CB00002EB4101488098887F49098801EB410196
:100CC00002EB410188807C480088401C40F23121C1
:100CD00090FBF1F201FB1200774908800120D9E76F
:100CE00010B502460023FFF7C5FF0346002B01DDC8
:100CF000002010BD7148008800EB4000704931F8B9
:100D0000100010806D48008800EB400001EB4000AF
:100D1000408850806948008800EB400001EB4000AB
:100D20008088908065480088401C40F2312190FB0B
:100D3000F1F401FB1400614908800120D9E700208B
:100D40005D49098801F231215C4A1288891A40F212
:100D5000312291FBF2F302FB131188B270472DE9A7
:100D6000FF41002600270025A8460020029003909E
:100D70000090019000210420FFF7B2FD012000F057
:100D800041FE94E04F48008810F4804F6ED0FFF78A
:100D900035FE0746002F5CD0FFF780FE0546002D8C
:100DA0004FDD31E0002406E0FFF7EFFE02A921F855
:100DB0001400601CC4B2032CF6DBBDF80800ADF8CB
:100DC0000000BDF80A00ADF80200BDF80C00ADF857
:100DD00004003D48007818B96846FFF755FF0546FE
:100DE00039480078012805D100203649088004B030
:100DF000BDE8F08145B90020324908800021032078
:100E0000FFF76EFD0020F2E7304800880328C9DABA
:100E1000002D4CDD00202B490880BDF800002C4936
:100E20000880BDF802002B490880BDF804002A495B
:100E300008804FF0010800210120FFF751FD4046D6
:100E4000D5E700210320FFF74BFD00201D49088056
:100E50002EE04FF4E131482000F0F6FF0020194960
:100E6000088000210220FFF73BFD21E015480088A3
:100E700010F4005F10D0002404E00020174908554A
:100E8000601CC4B20F2CF8DB00200E490880002142
:100E90000520FFF725FD0BE0701C86B2642E03DDF4
:100EA00000200849088003E0642000F090FD69E715
:100EB00000BF40469BE70000160000201400002001
:100EC000560300203A000020010000200A00002004
:100ED0000E0000201000002012000020DCCD0020B9
:100EE0002DE9FC5F81468A4693461D460E9C0026EE
:100EF0000027B046B5F5C87F06DA0C98B0F5C87F74
:100F000002DA0D98282802DB0020BDE8FC9FA5EB43
:100F10000906012020800C98A0EB0A0701206080C0
:100F20000D98A0EB0B080120A08006F400400028DB
:100F300003DDF043461C0020208007F40040002819
:100F400003DDF843471C0020608008F400400028BF
:100F500005DD6FEA080000F101080020A08030469E
:100F600002F056FD00900E480168009802F0B0FDB6
:100F7000019002F011FDA060384602F049FD00909A
:100F800007480168009802F0A3FD019002F004FDFB
:100F9000E0600448008808FB00F020610120B4E70D
:100FA000180000201C00002010B5002200BF15E032
:100FB00031F8123020F8123001F1940353F8224036
:100FC00000F1940343F8224001F1400353F822401A
:100FD00000F1400343F82240531C9AB2152AE7DB84
:100FE0000B8F03874B8F43878B8F8387CB6AC362BB
:100FF0000B6B03634B6B4363CB8FC38710BD024600
:101000008A4201D1012070470020FCE710B502465A
:10101000481CC92390FBF3F403FB1400904201D158
:10102000012010BD0020FCE7F0B505460F4616462E
:101030001C4621883088FFF7E9FF08B10020F0BD89
:101040002188C1EB011105EB01103946FFF7ACFF18
:101050002088401CC92190FBF1F201FB1200208086
:101060000120ECE7F0B505460E4614461F463988C8
:101070002088FFF7C4FF002801DD0020F0BD208894
:10108000C0EB001005EB00113046FFF78DFF208804
:10109000401CC92190FBF1F201FB120020800120CD
:1010A000ECE730B50246002001F1C9039B1AC924C0
:1010B00093FBF4F504FB153398B230BDF848008873
:1010C0007047F749088070472DE9FF470546894674
:1010D00014461E464FF0000A002002900390009034
:1010E00001902088B9F80010401A02906088B9F881
:1010F0000210401A039030882188401A00907088AE
:101100006188401A0190B088A188884203D01420D9
:1011100004B0BDE8F087694602A800F00AFC8246E8
:101120000A2D28DC504602F0A7FA0746DD4ADE4BBE
:1011300002F06CFA01D80A20EAE70021504602F0DA
:1011400093FD0AD2504602F097FA0746D54AD64B8D
:1011500002F022F901D21220DAE70021504602F013
:10116000E7FB01D11320D3E70021504602F07CFCBD
:1011700001D21420CCE7122D1EDB504602F07CFA7F
:101180000746C84AC84B02F041FA03D8C5F114001B
:1011900080B2BDE70021504602F066FD0AD25046FB
:1011A00002F06AFA0746BF4ABF4B02F0F5F801D2D7
:1011B0001320ADE71420ABE70020A9E7014600208B
:1011C00000BF06E0B94A32F8102021F81020421C76
:1011D00090B21528F6DB7047F0B505460E460021A3
:1011E0000024152D01DA152E01DB0020F0BD0021B1
:1011F00006E0002703F1400040F82170481C81B24E
:101200001529F6DB002A1CDD0F2092FBF0F4C82C18
:1012100000DDC82401210DE001F10A0003F14007BF
:1012200047F82040C1F10A0703F1400040F8274089
:10123000481C81B20329EFDD04EB4400A2EB400718
:101240009F660120D2E7F0B506461446002200252D
:10125000152E01DA152901DB0020F0BD002206E081
:10126000002703F1400040F82270501C82B2152A7A
:10127000F6DBB4F52B7F19DA142094FBF0F51E276A
:1012800003F1400040F82170481C82B205E003F1F0
:10129000400040F82250501C82B20A2AF7DBC1F10C
:1012A000090005FB10401E38986620E01E2094FBC4
:1012B000F0F5C82D00DDC8250A2703F1400040F8ED
:1012C00021704FF0140C4F1C40F827C0881C82B2CC
:1012D00005E003F1400040F82250501C82B20A2A77
:1012E000F7DBC1F1080005FB10401E3898660120AD
:1012F000B3E7F0B506460C46154600210022152E30
:1013000003DA152C01DA0A2C01DC0020F0BD0021E3
:1013100006E0002703F1400040F82170481C81B22C
:101320001529F6DB40F2AB20854234DA0A2E12DCB6
:101330000B2095FBF0F20B2105E003F1400040F893
:101340002120481C81B2A142F7DDA4F10A0002FB72
:1013500010579F6675E0142095FBF0F2C6F115005A
:1013600081B205E003F1400040F82120481C81B221
:101370000A29F7DB0B2105E003F1400040F82120AA
:10138000481C81B2A142F7DDC6F11400201A02FB0D
:1013900010579F6655E00A2E22DC142095FBF0F2D0
:1013A000C82A00DDC8220B2105E003F1400040F807
:1013B0002120481C81B2A142F7DB4FF0140C601EC3
:1013C00003F1400747F820C0142703F1400040F81C
:1013D0002470A4F10C0002FB10502838986630E00D
:1013E0001E2095FBF0F2C82A00DDC822C6F11500C8
:1013F00081B205E003F1400040F82120481C81B291
:101400000A29F7DB0B2105E003F1400040F8212019
:10141000481C81B2A142F7DB4FF01E0CC6F114004C
:1014200003F1400747F820C01E2703F1400040F8B1
:101430002470C6F11400201A801E02FB10503C38A4
:101440009866012062E7F0B507460C4615461E4631
:101450003046FFF7B3FE002D19DD152C17DA0A2CE4
:1014600005DA33462A4621463846FFF7ECFE0A2CB9
:1014700005D133462A4621463846FFF7ADFE0A2CF1
:1014800005DD33462A4621463846FFF732FFF0BDD8
:1014900010B5044674B90120054908800DE000002C
:1014A000300000209A9999999999E93FCA3D00081E
:1014B000560000200020ED49088047214FF47A7043
:1014C00001F0C9FA10BD2DE9F047C6B00646002468
:1014D000A146A24600250027A04600BFC1E100208A
:1014E000E3490860E3480188E3480088FFF78EFD80
:1014F00038B100210320FFF7F3F9204646B0BDE8DC
:10150000F087DE48FFF7ECFB8146B9F1000F01D10F
:101510000020F3E7DA480088DA490988884206DDC6
:10152000D7480088D7490988401A87B205E0D548CE
:101530000088D3490988401A87B2D1484088D149E8
:101540004988884207DDCE484088CE494988401AFC
:101550001FFA80F806E0CB484088C9494988401AFC
:101560001FFA80F8474503DD0120ADF8660002E070
:101570000220ADF86600AA2F02DCB8F1AA0F7DDDCB
:10158000BF490988BF4A1288881800EBD071C1F39F
:101590004F01ADF80C10BA494988BA4A52888818E8
:1015A00000EBD071C1F34F01ADF80E10B548808843
:1015B000ADF81000FFF782FD8246B24B03AAB04996
:1015C0005046FFF781FD054605AABDF81000BDF89D
:1015D0000E10CDE901020091BDF80C30DFF8A0C279
:1015E000BCF80420BCF80210BCF80000FFF778FC3F
:1015F00081460998002838DDA34909984863BDF859
:10160000180088870B4614210846099AFFF71BFF2C
:1016100005E0012000F0F6F900209C49086095489B
:10162000018895480088FFF7EAFC0028F1D005E022
:10163000012000F0E7F900209449086094480088F0
:101640000028F5D08F498888FFF722FF05E00120A8
:1016500000F0D8F900208D4908608E4800880028E5
:10166000F5D04FF001008949086007981590089857
:101670001690BDF81400ADF8600000E064E0BDF81D
:101680001600ADF86200BDF86600012806D10AAB6D
:1016900029465046079AFFF7D6FE05E00AAB2946D1
:1016A0005046089AFFF7CFFE724B734A0AA97A4850
:1016B000FFF7BAFCAA46714B724A03A95046FFF7DE
:1016C00003FD054605AA6F4880886E494988DFF802
:1016D000B4C1CDE901020091BCF80030BDF8102082
:1016E000BDF80E10BDF80C00FFF7FAFB8146BDF8FF
:1016F0001400ADF86000BDF81600ADF86200BDF84A
:101700001800ADF86400079815900898169009988D
:101710001790BDF86600012806D10AAB294650464D
:10172000079AFFF790FE05E00AAB29465046089A53
:10173000FFF789FE4F4B504A0AA95748FFF774FC40
:101740002846FFF7BEFC82E0FFF7B8FC82464B4B11
:101750004C4A4B495046FFF7B7FC054605AA494895
:10176000808848494988DFF81CC1CDE90102009111
:10177000BCF80030DFF808C1BCF80420BCF8021047
:10178000BCF80000FFF7ACFB8146BDF81400ADF8D3
:101790006000BDF81600ADF8620008981690079832
:1017A00015900998002838DD374909984863BDF835
:1017B000180088870B4614210846099AFFF743FE54
:1017C00005E0012000F01EF900203049086029489A
:1017D000018829480088FFF712FC0028F1D005E0B5
:1017E000012000F00FF900202849086028480088EF
:1017F0000028F5D023498888FFF74AFE05E001203C
:1018000000F000F9002021490860224800880028E3
:10181000F5D04FF001001D490860BDF866000128B1
:1018200006D10AAB29465046079AFFF70CFE05E0A1
:101830000AAB29465046089AFFF705FE0D4B0E4AA3
:101840000AA91548FFF7F0FB2846FFF73AFC0D49B7
:101850000B48FFF7F7F909490A48FFF7F3F9601C4D
:1018600084B2B442FFF63BAE012047E656000020AA
:101870009481214234000020320000202A00002000
:101880001E00002024000020ECCC00209401234204
:10189000740000205A0000207C1000202DE9F04741
:1018A00004464FF07C51204602F012F98246A146D0
:1018B0003748A0EB69094C465146204602F008F92A
:1018C0000746214602F004F906464FF07F5102F028
:1018D000FCF90546214602F0FBF80446204601F0DB
:1018E000CBFE07463A460B4600202A4901F0E4FBAE
:1018F000054601F0A3FB04462046BDE8F0872DE92C
:10190000F047044621684943626802FB021001F077
:101910002BFD074600221F4B01F07AFD054601F022
:101920008DFB81464846FFF7B9FF81464846BDE832
:10193000F0872DE9F04705460C4600270026B04603
:101940002846FFF7DCFF07462046FFF7D8FF06468C
:101950000021384602F088F917D20021304602F003
:1019600083F912D23146384602F0B2F8814629682E
:10197000226851436A68636802FB031002F048F86A
:101980008246494601F012FF80464046BDE8F08796
:10199000865A375F0000F03F4FF0E021096921F0DF
:1019A00004014FF0E0221161C21700EB5272D21015
:1019B000224B1A701946097801EB4102C2EBC111A2
:1019C0004FF6FF7202EAC1011D4A118070470146BD
:1019D0001A4A12784A434FF0E0235A6100229A6172
:1019E00001221A6100BF4FF0E022106910F0010FD0
:1019F00002D010F4803FF6D000224FF0E0231A61AD
:101A00009A61704701460E4A12884A434FF0E0231C
:101A10005A6100229A6101221A6100BF4FF0E02250
:101A2000106910F0010F02D010F4803FF6D00022B0
:101A30004FF0E0231A619A617047000036000020E1
:101A400038000020AC4A0A400243AC4B1A60704791
:101A50000146072323EA01021202A84B1B1D186846
:101A60004FF6FF031840A64B18431043A34B1B1D12
:101A7000186070472DE9F0478046894614461D4698
:101A80002046E11704EB91714FEAA10AE11704EB3C
:101A900091718910A4EB8101CFB2042000EBC70043
:101AA000C7B22846FFF7D4FFC5F1040008FA00F6D4
:101AB0000F20284100EA0900064306F00F06202CFB
:101AC0000CDA904800684FF0010101FA04F140EA95
:101AD00001004FF0E021C1F800010DE08A480068E4
:101AE000A4F120014FF0010202FA01F240EA0200E3
:101AF0004FF0E021C1F80401844850F82A0006FAAA
:101B000007F140EA0100814941F82A00BDE8F08769
:101B100070B504460B46CE1701EB9676B010CE1783
:101B200001EB9676B610A1EB8606B606350E784B1D
:101B30009B6943F00103764EB3614FEAB63353F825
:101B400020300F26AE40B343724E46F82030334665
:101B500053F8203004FA05F633436E4E46F8203031
:101B60006D4B1E6801238B401E436B4B1E6012F0B1
:101B7000010F08D0684B0C331B6801268E4033439D
:101B8000654E0C36336012F0020F08D0624B0833FA
:101B90001B6801268E4033435F4E0836336070BDAC
:101BA00000B500205A490861C8601420486100202F
:101BB0008861C8610846006840F001000860084676
:101BC00040685649084052494860084600685449F0
:101BD00008404F4908600846006820F480200860EB
:101BE0000846406820F4FE0048600020886000211C
:101BF0004FF00060FFF726FF00BD10B53F480830EA
:101C0000006840F004003D49083108604048C06960
:101C100040F080503E49C8614248406840F48070BE
:101C2000404948600846006840F0040008600846E3
:101C3000006840F002000860FEF7CCFA10BD3048A2
:101C4000001D2E49091D0860704701464906304AAB
:101C5000926942F001022E4B9A612E4A083A52686C
:101C600022F0E0622B4B083B5A601A4652680A4346
:101C70005A60704730B504460025FFF791FF2448AD
:101C8000006840F480302249086000BF20480068A6
:101C9000400CFBD04FF480601D494860A01EC4B2C8
:101CA0000846406840EA844048600846406840F47E
:101CB000803048601C48006840F032001A490860D3
:101CC0001348006840F080701149086000BF104858
:101CD0000068400EFBD00E48406840F002000C49FE
:101CE000486005E00A484068C0F3870505F0030531
:101CF000022DF7D130BD000080FFFF1F08ED00E08E
:101D00000000FA0500E100E004E100E000E400E08A
:101D10000010024008000140000401400000FFF8EC
:101D2000FFFFF6FE007000400020024000217F4AC5
:101D3000128812F0200F33D07C4A121D1288D0B2C4
:101D40007B4A128812F4804F7DD1794A128812F4AE
:101D5000005F78D1764A128812F4007F57D0744A17
:101D6000128812F4805F1CD0714A128802F07F0240
:101D7000704B98546E4A128802F07F026E4B1B889B
:101D80009A4208DB6A4A128842F48042684B1A8001
:101D90000622694B1A80664A1288521C644B1A80CC
:101DA00051E0634A128802F07F02624B9854604A05
:101DB0001288521C5E4B1A801A46128802F5806205
:101DC0001A801A46128802F40062002A3BDD1A4685
:101DD000128842F480521A8000210022564B1A8049
:101DE000534A128802F07F02521E524B995C4FF602
:101DF000FF7202EA01214E4A128802F07F02921E0F
:101E00009A5C0A4491B28A1D4B4B1A801BE0FF2852
:101E10000AD00022464B1A801A46128842F4005219
:101E20001A80464A10700EE0414A128802F07F0282
:101E3000404B98543E4A1288521C3D4B1A801A4619
:101E4000128880321A8070472DE9F05F05460E46F1
:101E5000300101F0F5FD8146394905FB01F001F043
:101E6000EFFD8246494601F0A1FC0746384601F0E5
:101E7000AFFD84B2204601F0E3FD8346394601F010
:101E800024FF82464FF0834101F022FE814601F09B
:101E90009FFD80464FF6FF7000EA041404EB080033
:101EA00084B22848806940F00400264988610846C9
:101EB000806940F4804088612348006820F47F6096
:101EC000214908600846006840F40B6008601D481E
:101ED000C06840F480401B49C8600846C06820F4D0
:101EE0008040C860114808300480001D008842F21C
:101EF0000C0108430D490C31088000200C49088072
:101F00000A480C30008840F4807008490C31088081
:101F10000846008840F02000088002232522032183
:101F20000120FFF7A7FDBDE8F09F00000038014049
:101F30003A000020DCCD00203C0000203E000020C4
:101F400040420F000010024004080140014600BF5B
:101F5000704700BF7E4A128812F0400FFAD0C2B21A
:101F60007B4B1B1D1A8070470021794A128812F0A2
:101F7000200F7FD0764A121D1288D0B2754A12887F
:101F800012F4804F76D1734A128812F4007F55D034
:101F9000704A128812F4805F1CD06E4A127802F0E8
:101FA0007F026D4B98546B4A127802F07F026B4BA4
:101FB0001B889A4208DB674A128842F48042654BCC
:101FC0001A800622654B1A80624A1288521C614BA5
:101FD0001A804FE05F4A127802F07F025E4B9854FD
:101FE0005C4A1288521C5B4B1A801A46128802F512
:101FF00080621A801A46128802F40062002A39DDD3
:102000001A46128842F480521A801A46127802F058
:102010007F02521E504B995C4FF6FF7202EA01217B
:102020004C4A127802F07F02921E9A5C0A4491B2E6
:102030004A4A12880A44494B1A801BE0FF280AD0FA
:102040000022444B1A801A46128842F400521A8029
:10205000434A10700EE03F4A127802F07F023E4B76
:1020600098543C4A1288521C3A4B1A801A461288DD
:1020700080321A8070472DE9F05F05460E46300128
:1020800001F0DEFC8146374905FB01F001F0D8FC88
:102090008246494601F08AFB0746384601F098FC23
:1020A00084B2204601F0CCFC8346394601F00DFE97
:1020B00082464FF0834101F00BFD814601F088FC20
:1020C00080464FF6FF7000EA041404EB080084B267
:1020D0002548806940F4807023498861234840681E
:1020E00020F0F000214948600846406840F0300088
:1020F00048601D48806940F004001B4988611C4805
:10210000006820F47F401A4908600846006840F4DF
:102110000B4008601448C06940F400301249C8619F
:102120000846006940F4003008610846006920F460
:1021300000300861064808300480001D008842F223
:102140000C01084302490C310880BDE8F09F0000F3
:102150000044004040000020A4CE002042000020A7
:102160004400002040420F000010024000200140C7
:10217000000801400A48806940F008000849886169
:102180000848006820F00F0006490860084600680B
:1021900040F0030008600020034908607047000019
:1021A00000100240040C0140A081214237488069A0
:1021B00040F00400354988610846806940F04000DD
:1021C00088613348006820F00F00314908600846F4
:1021D000006840F0080008602E4800682E4908405A
:1021E0002C490860084600682C49084329490860C2
:1021F00028480C30006840F01C0026490C3108606B
:10220000704710B5044614B10120254908702448D0
:10221000007838B32348006848B12348006830B1DB
:102220002248006818B12248006801281AD10A2003
:10223000FFF7E8FB00201A4908701A48006808B93F
:10224000012010BD1848006808B90220F9E71748B6
:10225000006808B90320F4E715480068012813D185
:102260000420EEE70F48006801280DD10E480068F1
:10227000012809D10D480068012805D10C480068E3
:1022800010B90120064908700020DAE7001002406A
:102290000008014000180140FF00F0FF008808001E
:1022A0004C000020100123420C012342080123426C
:1022B0000001214210B50A20FFF7A4FB4148006845
:1022C000012807D14048006808B9012000E000203B
:1022D0003D4908604FF001003C49086010BD10B551
:1022E0000A20FFF78FFB3A48006830B901203949CE
:1022F00008604FF00000384908804FF0040033496F
:10230000086010BD10B50A20FFF77CFB3348006859
:1023100028B901203049088000202E4908604FF07C
:1023200008002A49086010BD10B50A20FFF76AFBB3
:102330002B48006880B92748006808B9012000E0F0
:102340000020244908602748D0F8940108B90120EA
:1023500000E00020244908604FF010001B4908608D
:1023600010BD10B5FFF722FF022200210846FFF73B
:10237000CFFB012202210420FFF7CAFB0122032127
:102380000420FFF7C5FB012204210846FFF7C0FB2C
:102390000223062203211846FFF76CFB02230822C2
:1023A00019460120FFF766FB022309220121084696
:1023B000FFF760FB02230A2200210120FFF75AFBEE
:1023C00010BD000000012142A081214214040140FF
:1023D00008012342948121424E0000200C01234237
:1023E00010012342000023429401234245F255523A
:1023F000334B1A601A46506091604AF6AA221A605E
:102400004CF6CC421A6070474AF6AA202C49086064
:10241000704770B506460C4615462A48C06940F418
:1024200000602849C8612848007830402649087073
:102430002648006840EAC51024490860084600683C
:102440004FF6807108402149086008460068204323
:102450000860081F00681C49097808431B49091FC8
:1024600008600846006840F08000086002230022EF
:1024700003211846FFF7FEFA00201449091D0860E1
:10248000081F006840F40070091F086070BD00F06C
:102490007F010E4A121F1160704700B50A4800788C
:1024A000FFF7F5FF00200949091D0860084800688A
:1024B00008B9012000E000200549086000BD0000C7
:1024C000003000400010024050000020042C00406A
:1024D000940123424FF08040008A10F0010F60D039
:1024E000FE48006808B9012000E00020FB490860B0
:1024F000FB480068B0F5007F45DAFA480088E8B983
:10250000F94800684FF2FF010840F74908600846A3
:102510000068F649F64A128831F8121040EA0120A4
:10252000F1490860F2490988481CC11700EB517154
:10253000C910A0EBC101EE4A11801EE0EA48006814
:102540004FF2FF010840E849086008460068E84982
:102550000988C1F10701E54A32F8111040EA01206B
:10256000E1490860E2490988481CC11700EB517134
:10257000C910A0EBC101DE4A1180D9480068401C97
:10258000D74908600DE00120DA49088080070088FB
:102590004FF6FE7108404FF0804108800020D0497E
:1025A00008604FF08040008A20F001004FF0804129
:1025B0000882704770B500240025CF48008810F0CD
:1025C000010F31D0CD48006840B1CD48006828B136
:1025D000CC48006810B1CC48006830BB0120FFF740
:1025E00011FAC648006848B1C548006830B1C5480E
:1025F000006818B1C4480068002815D10020B74908
:102600000860C249C1F8A001C14800884FF6FE71B8
:1026100000EA0100BE4908804FF00000BD49086093
:10262000BD490860BD4908800CE2BD48008801280A
:1026300073D1BC480088BC49098888426DD0B9482C
:102640000088C0EB0010B94901EB0010008FB849B9
:102650000887B4480088C0EB0010B44901EB0010B3
:10266000408FB3494887AF480088C0EB0010AF499E
:1026700001EB0010C08FAE49C887AA480088C0EBA4
:102680000010AA4901EB0010C06AA949C862A54818
:102690000088C0EB0010A54901EB0010006BA449B5
:1026A000086300241AE09F480088C0EB00109F498F
:1026B00001EB0010403050F824109D48403040F8A5
:1026C000241098480088C0EB0010984901EB0010D6
:1026D00030F81400964921F81400641C152CE2DB34
:1026E00090480088401CC92190FBF1F201FB1200C8
:1026F0008C4908808E48008F002803DD01208D4919
:10270000086002E000208B4908608948408F00285B
:1027100004DD01208849086003E012E000208649BA
:10272000086083480088854908804FF000007C4994
:1027300008807A49088077490860814908607649AD
:10274000086077480088002827D17E480088012843
:1027500003DA7D480088012820DB7A4800880128B8
:102760000BDB7A48006808B9012000E000207749B7
:1027700008604FF000007349088073480088012802
:102780000BDB7348006808B9012000E000207049A5
:1027900008604FF000006C49088053E16448C08F26
:1027A00001287DD16248C06A5B4909684843604995
:1027B000096B584A126801FB1205002D13DB00203B
:1027C000624908605348006800F1010051490860FF
:1027D0005B48006800F10100594908604FF00100B2
:1027E000584908801DE00020584908605949C1F83F
:1027F00084014848006800F10100464908605048DB
:10280000006800F101004E4908604348006800F18B
:102810000100414908604FF001004A4908804A49D7
:102820000880434800F140003C49098850F82100E5
:102830004349096888422CDC002041490860374838
:102840000088401C354908800CE034480088401C52
:102850003249088008460088152803DB01203049EA
:10286000088007E0324840302C49098850F82100A0
:102870000028EAD000BF29480088152809DA2C482A
:102880002649098830F811002C4908800120324976
:1028900008802748C06A1F490968884204DC00E0B4
:1028A00002E001201E4908802148C08F02287CD107
:1028B0001F48C06A1849096848431D49096B154AF1
:1028C000126801FB1205002D5FDB00201F49086024
:1028D0002049C1F884010F4800683FE09401234279
:1028E0006C000020560000200C180140F43D000848
:1028F000540000205A000020100C00400801224221
:102900000C012242000122420401224200802142A5
:10291000000C0040600000205C00002070000020DF
:102920007400002032000020340000207C100020C1
:102930006CCF002088812242848122422C0C0040EE
:10294000640000207E00002080000020A0012142C1
:1029500084012142000021425800002000F10100C2
:10296000AA490860AA48006800F10100A849086067
:10297000A848006800F10100A64908604FF0010076
:10298000A5490880A549088014E00020A4490860F2
:10299000A048006800F101009E4908609C4800685A
:1029A00000F101009A49086000E04BE04FF001009F
:1029B0009A4908809B489C49098850F8210094490D
:1029C0000968884234DC00209149086096480088F4
:1029D000401C954908800CE093480088401C9249AF
:1029E000088008460088152803DB01208F490880ED
:1029F00006E08C488C49098850F821000028EBD06B
:102A000000BF89480088152812DA86484038864970
:102A1000098830F811008649088082484038824988
:102A2000098830F811008249088001208149088016
:102A30007C484038006B77490968884202DC0120F5
:102A40007A4908807A481C38008820F001007849CB
:102A50001C39088070BD70B505460C467648C069C3
:102A600040F001007449C861880485850485808927
:102A700040F00100890488810846008840F0010088
:102A8000088000206D4908606D49088002231C22DF
:102A900019461846FEF7EEFF70BD6A4A126822F02A
:102AA0007042684B1A601A46126842F030421A604F
:102AB000614A926942F004025F4B9A611A46D269F8
:102AC00042F00202DA61604A1080121F11805E4AF1
:102AD000143A128842F4E0425B4B143B1A801A46C7
:102AE000128842F400621A80574A0C3A128842F067
:102AF0001002554B0C3B1A801A46128842F02002F5
:102B00001A80514A2C3A128842F080024E4B2C3BDC
:102B10001A801A46128842F001021A8082224A4B19
:102B20000C331A80704770B505460C464248C069A0
:102B300040F008004049C8613D480580001F0480FE
:102B40003B482038008840F001003949203908808E
:102B500037482C38008840F0010035492C3908806E
:102B60000223322200211846FEF784FF00202A4962
:102B700008802A49088001202C49088070BD70B562
:102B800004460D4635BB022C04D0032C0CD0052C7A
:102B90001ED113E04FF0804000884FF6FE710840D0
:102BA0004FF08041088014E027482C3800884FF609
:102BB000FE71084024492C3908800AE01C482C3852
:102BC00000884FF6FE71084019492C39088000E052
:102BD00000BF1AE0022C04D0032C08D0052C12D11F
:102BE0000BE08F2141F29410FFF735FF0CE04721F5
:102BF00040F2DC50FFF751FF06E0472140F2DC5085
:102C0000FFF791FF00E000BF00BF70BD6000002033
:102C1000640000205C0000207E0000208000002076
:102C200084012142ACCF00207000002074000020FD
:102C30002C0C004058000020001002406C000020C6
:102C40005A000020000801402C04004056488069CA
:102C500040F00800544988610846806940F040000F
:102C600088610846806940F00400886108468069F0
:102C700040F0100088610846806940F020008861BB
:102C80004A48006820F0F00048490860084600689B
:102C900040F030000860081D006820F00F00091D9A
:102CA00008600846006840F0030008603F480C30A8
:102CB000006840F480703D490C3108603C48006871
:102CC00020F070403A4908600846006840F04050E3
:102CD000086037480C30006840F0800034490C31FF
:102CE00008603348006820F47000314908600846E5
:102CF000006840F4401008602D480C30006840F037
:102D000020002B490C3108602A48006820F470002C
:102D1000284908600846006840F4401008602548CB
:102D20000C30006840F0200022490C310860214836
:102D3000001D00686FF30F001E49091D086008465A
:102D4000006843F2333108431A49091D08601A48E4
:102D500000684FF6F071884317490860084600681C
:102D600043F2303108431449086013480C300068BE
:102D700040F0020010490C3108600846006840F03D
:102D8000040008600846006840F0080008600B482E
:102D9000006800F07F40094908600846006808495B
:102DA00008430649086070470010024000080140CF
:102DB000000C0140001801400014014000100140C7
:102DC00088888800704700000FB4044910B503AA32
:102DD000029800F0D5F810BC5DF814FB4800002004
:102DE0002DE9F0410E460446002020622046E168AD
:102DF000884730B3252805D0D4E901219047206ABF
:102E0000401CF2E7E168204600278847050018D0FB
:102E1000A5F14100192802D820354FF40067324649
:102E2000294620462760FDF7BDF940B1012804D0AE
:102E3000F61D26F007060836D8E7361DD6E72846E1
:102E4000DAE7206ABDE8F0812DE9F041064600246A
:102E500010687529314616A511D0AFF300800028FF
:102E600003DAC0F1000013A507E031688A0701D535
:102E700011A502E0490704D510A5012401E0AFF334
:102E8000008000210A2306F1240707E0B0FBF3F2DB
:102E900003FB1200303078541046491C0028F5D14D
:102EA00023462A463046BDE8F04100F00DB8000048
:102EB000000000002D0000002B000000200000009A
:102EC00070477047704770472DE9F0470D469946A7
:102ED0009246044600F124080168880604D5E0699A
:102EE00021F01001216000E00120A84202DDA0EBEA
:102EF000050700E00027A16907EB050202EB0900C6
:102F0000A1EB0000A0612078C00602D42046AFF3F8
:102F10000080002608E0D4E901211AF80600904755
:102F2000206A401C761C20624E45F4DB2078C006E7
:102F30000AD52046AFF3008006E0D4E90121302015
:102F40009047206A401C2062381EA7F10107F4DC7C
:102F500007E0D4E9012118F805009047206A401CD9
:102F60002062281EA5F10105F3DC2046AFF30080A6
:102F70002078000602D50220BDE8F0870120FBE79B
:102F8000074B70B50D467B4400F011F80446284607
:102F900000F020F810B14FF0FF3070BD204670BD3A
:102FA000C9EFFFFF01694A1C02610878704700B54C
:102FB0008FB0CDE901310021059105497944CDE972
:102FC000031011466846FFF70BFF0FB000BD00006D
:102FD000E5FFFFFF007B00F080007047754600F0C2
:102FE00029F8AE4605006946534620F0070085469D
:102FF00018B020B5FDF706F9BDE820404FF00006F7
:103000004FF000074FF000084FF0000B21F00701D0
:10301000AC46ACE8C009ACE8C009ACE8C009ACE813
:10302000C0098D4670470446AFF300802046FDF787
:10303000CBF80000004870475CD0002021F000422F
:10304000A2F16052B2F5801F01F0004328BFD2F117
:103050007F6C0BD95FEA001C43EAC20242EB50705E
:1030600018BF704728BF20F001007047B2F5801FDD
:10307000BCBF184670474FEA410C1CF5001F02D236
:10308000084600F0ECBD70B500F06CFA0000008955
:10309000FFF7F6BF4FF00040A0F5800070474910E1
:1030A00058BFC1F140415B1058BFC3F140438B4250
:1030B000EFF30080704700002DE9C04130B4DFF825
:1030C000A0C23CEA111418BF3CEA131400F0EC80D3
:1030D00081EA03051CEA111444EAD57418BF1CEAFE
:1030E000131500F0C780A4EB05044FF0004545EA36
:1030F000C12145EAC32341EA505143EA525304F146
:103100007F74994204F500344FEAC0204FEAC2228E
:1031100008BF904200F09C804FEA13650FF2401602
:10312000765D4FEA134506FB05F7C7F1807706FB8E
:1031300007F74FEAD737A7FB03687642C8F5803810
:10314000A7FB06CE38BFA8F1010807FB08E64FF041
:10315000000EA6FB028CE6FB03CEDCF1000CCEF1E8
:10316000004E38BFAEF1010EA6FB0C584FF0000721
:103170004FF00005E6FB0E87A1FB08C6A0FB07CEBB
:1031800016EB0E0645F10005E1FB076515F1E04E73
:103190007EBFA4F580345FEA46066D4116F18007D4
:1031A00045F100054FEA17274FEA066647EA05672B
:1031B000A6F1DE46B6F1805F4FEA15251FD93846E5
:1031C00024F0010C05EBC471BCF1FE6F01EB0C1196
:1031D00002D8F0BCBDE8008124425CBF01F5801E2E
:1031E0009EEAC47F02D4F0BCBDE80081244238D4FA
:1031F000F0BCA1F1C041BDE8004100F001BA4FEAC6
:10320000D22242EA43524FEAD323A7FB02864FEA77
:10321000D02040EA415007FB03661EEA0E0F4FEA3A
:10322000D12105FB026658BFA6EB0056B6EB00564F
:103230004FEA520E4EEAC37E18EB0E0E56EB530EBB
:10324000BDD518EB02085E417F1C55F10005B6E7BD
:103250004FF480154FF000074FF000064FF00008C4
:10326000ADE7F0BC4FF0000001F1C04101F00041BA
:10327000BDE8008111EA0C1F0CEA131500D00CE028
:1032800013EA0C1F00F025804FF00000F0BC81EA2B
:10329000030101F00041BDE80081F0BCBDE8004140
:1032A00081EA030100F0ACB9F0BCBDE8004170B5A3
:1032B00000F058F9097EFC3E00F007B881EA0301EE
:1032C0004FF0000001F00041704781EA030100F077
:1032D00097B9F0BCBDE800414FF0000021497047AC
:1032E000FFFDFBF9F7F5F4F2F0EEEDEBE9E8E6E4CB
:1032F000E3E1E0DEDDDBDAD8D7D5D4D3D1D0CFCD52
:10330000CCCBCAC8C7C6C5C4C2C1C0BFBEBDBCBB8A
:10331000BAB9B8B7B6B5B4B3B2B1B0AFAEADACAB85
:10332000AAA9A8A8A7A6A5A4A3A3A2A1A09F9F9E5F
:103330009D9C9C9B9A999998979796959594939311
:10334000929191908F8F8E8E8D8C8C8B8B8A8989A8
:10335000888887878685858484838382828181802B
:103360000000FF070000F87F10F0004248BF404215
:10337000B0FA80F310FA03F10AD0C3F11D0303F58C
:1033800080634FEA415002EB035202EBD1217047B8
:103390004FF000007047000051EA030C17D41CF5F1
:1033A000801F58BFBCF5801F00F10680994218BFEE
:1033B000704708BF9042704707D711F5801F58BF6C
:1033C00013F5801F19D499427047894270471CF544
:1033D000801F08D5BCF5801FF7D58B4218BF7047FA
:1033E00008BF824270474FF4001C1CEB410F38BFEE
:1033F0001CEB430F01D28B42704770B500F0B2F85E
:10340000922449004FF000514FF08053FFF747BE20
:10341000DFF848C170B51CEA111E1EBF1CEA131567
:103420009EEA0C0F95EA0C0F00F06F8081EA03040E
:1034300023EA4C134EEAD47E21EA4C1141F4801168
:1034400043F48013AE44A1FB024CA0FB0365AEF134
:103450007F7E361955EB0C05A1FB034C4CF10003A4
:10346000A0FB021C16EB0C06654153F10003094258
:1034700018BF46F0010613F4007F0BD14FEA033169
:103480004FEA0530340341EA155140EA16506FF017
:1034900003020AE04FEAC3214FEAC520F40241EAE1
:1034A000555140EA56506FF0020202EB2E4201EBFA
:1034B000025585EACE710AD05FEA440C18BF24F0A9
:1034C000004450F1000041F1000120EAD47040F2C4
:1034D000FE7C624500D270BDA84214BF4FF080440C
:1034E0004FF04044002E08BF0024BEF1806FA8BFFB
:1034F000A1F1C041BDE8704080F282804FF0000031
:1035000001F1C04101F0004170479EEA0C0F0CEA46
:10351000131518BF95EA0C0F06D04FF0000081EA92
:10352000030E0EF0004170BD00F01CF88900013E52
:1035300000F007B800F009B84FEA430C5FEA5C5CA2
:1035400008D081EA030100F05BB84FEA410C5FEA62
:103550005C5CF6D14FF00000014970470000FF07A6
:103560000000F87F0EF1020E2EF0030E5EF8046BE1
:10357000364205D4012A43EB030515F5001F12D886
:10358000012841EB010C1CF5001F0CD80ED14FEAAD
:10359000D17C15F5001F0CEB4C0C0CF1020C08BF94
:1035A0004CEBD37C04E04FF0080C01E04FEAD37CF5
:1035B0000CEB4C0526FA05F606F00706B6F1040CEE
:1035C00006D20EEB860CBDE870404CF0010C604753
:1035D000DFE80CF0090B02024FF000414FF0000051
:1035E000A1F5002170BD19461046012851EB0104D8
:1035F00018BFD4F5001484BF002001F0004170BD55
:103600000808A0F500114FEA3101704753EA010C98
:1036100017D41CF5801F58BFBCF5801F00F1068031
:103620008B4218BF704708BF8242704707D713F517
:10363000801F58BF11F5801F19D48B4270479B42E1
:1036400070471CF5801F08D5BCF5801FF7D599423F
:1036500018BF704708BF904270474FF4001C1CEB26
:10366000430F38BF1CEB410F01D2994270470FB492
:103670000CBC03BCFFF7C1BE43004FEAD30C4FEABA
:103680003C0C43401FBF40070CF1605113F0FE4F4C
:1036900070471CF0006F03D100200CF00041704710
:1036A0000CF0004343EA507010B540EACC0000F043
:1036B00090FA00BF000000924FEA0001FFF7A0BFA0
:1036C0004FF000414FF00000A1F5002170470000CD
:1036D00090EA010F48BF81F0004100F10883421ACF
:1036E0003CBF801A89184FEAD0524FF07F4C1CEA39
:1036F000410FA2EBD15318BF9CEA026F00F03B8050
:103700004FF0004C4CEA00204CEA012121FA03FC66
:1037100010EB0C0C1ED202F1FF325FEA1C2040EBD2
:10372000C25038BF70471CF07F0F4FEA400C18BFE3
:10373000BCF17F4F38BF7047C3F12003994008BFE9
:1037400020F00100BCF17F4F38BF7047A0F1C040AE
:1037500000F085BA4FEA3C00000A40EBC25028BF97
:103760001CF0FF0F4FEA400CE6D018BFBCF17F4FB2
:1037700038BF7047EAE79CEA026F05D010EA5C0F99
:1037800008BF00F00040704710B500F022FA00BFFB
:1037900064FBBE3E401058BFC0F14040491058BFC6
:1037A000C1F140418142EFF3008070474FF47F0C3C
:1037B0001CEAD0121EBF1CEAD11392EA0C0F93EA46
:1037C0000C0F00F0858090EA010F48BF42F4807230
:1037D00040F4000C41F400002CF07F4120F07F40C9
:1037E00000B58142A2EB03020FF2081CACEB504E75
:1037F000C0F100009EF800E04FEA4E0E00FB0EFC08
:1038000038BF49004FEA2C1C02F5FA020CFB0EF3FC
:103810004FEACE1E4FEA112C4FEAC1210EEB635E38
:1038200042EB22420EFB0CFC4FEA1C5300FB03113F
:103830004FEA112C4FEA01310EFB0CFC4FEADC4C35
:1038400000FB0C11C14228BF09184CEB03335DF893
:1038500004EB10EB410143EBC250B2F57C0F38BFD3
:10386000704729D512F0F00F1CBF00F1C04000F0E6
:1038700000407047008182838485868788898B8C8D
:103880008D8E8F919293959697999A9C9D9FA0A2C9
:10389000A3A5A7A8AAACAEB0B2B3B5B7B9BCBEC019
:1038A000C2C5C7C9CCCED1D4D7D9DCDFE2E6E9ECBA
:1038B000F0F3F7FAFE0000004FEA400C0CF1807CB8
:1038C000BCF17E4F28BF7047B0F1C04000F0C7B9CF
:1038D00090EA010F0CEAD11348BF42F480726245AE
:1038E00038BF634507D213F47F0F16D080EA01007A
:1038F00000F00040704710B500F06BF9097EFC3E07
:1039000000F005B880EA010000F00040704780EA4E
:10391000010000F0004000F0A2B912F47F0F04BFD4
:103920000248704780EA010000F099B90000C07FAA
:1039300050EA010C00F113801CF5000F58BFBCF5D4
:10394000000F01D48842704707D710F5000F58BF09
:1039500011F5000F15D488427047894270471CF555
:10396000000F04D5BCF5000FF7D5814270474FF02A
:10397000807C1CEB400F38BF1CEB410F01D2814211
:10398000704710B500F025F9922449004FF000501F
:103990004FF08051FFF7FEBE41000B0ED3F19E02A7
:1039A00008D950F400034FEA032323FA02F048BF7A
:1039B0004042704710B500F00CF900BF49922480D6
:1039C000002070476FF0004282EA2000704700003C
:1039D000C10DD1F19E0206DB4FEA002343F0004304
:1039E00023FA02F07047004207D54FEA4001B1F1D7
:1039F000FE4F02D24FF00000704710B500F0E9F81A
:103A000049922480002070476FEA20007047000030
:103A100010F0004148BF4042B0FA80F310FA03F2C0
:103A2000C3F19D030BD051EAC35101EB12205306A1
:103A300038BF704700F1010008BF20F00100704757
:103A4000B0FA80F310FA03F2C3F19D030AD0D9054E
:103A500001EB1220530638BF704700F1010008BF88
:103A600020F001007047000050EA010C00F11380C3
:103A70001CF5000F58BFBCF5000F01D488427047F9
:103A800007D710F5000F58BF11F5000F15D4884265
:103A90007047894270471CF5000F04D5BCF5000F34
:103AA000F7D5814270474FF0807C1CEB400F38BF48
:103AB0001CEB410F01D28142704710B500F089F82C
:103AC000922449004FF000504FF08051FFF762BE42
:103AD0004FF47F0C1CEAD0121EBF1CEAD11392EAED
:103AE0000C0F93EA0C0F00F0478090EA010F48BFDB
:103AF00042F480724FF0004C4CEA00204CEA012165
:103B000002EB0302A0FB0113A2F50002002918BF7B
:103B100043F001035B0028BF4FEA330342EB22422C
:103B20005FEA132C4CEBC2502EBFBCEB436FB2F5D7
:103B30007C0F70474FEA036CBCF1004F08BF20F0C8
:103B40000100B2F57C0F38BF70470BD582F0FF0241
:103B500012F5803FC8BF704700F1C040D8BF00F0E9
:103B60000040704700F5000C5FEA4C0C48BF7047FE
:103B7000B0F1C04000F073B890EA010F0CEAD11325
:103B800048BF42F48072624538BF634504D280EA80
:103B9000010000F00040704710B500F01AF800BFB7
:103BA0008900013E00F007B800F009B85FEA410C57
:103BB0005FEA1C6C08D080EA010000F050B85FEAB0
:103BC000400C5FEA1C6CF6D14FF00040A0F580007D
:103BD00070470EF1020E2EF0030E5EF8044B2442E5
:103BE00004D44FEA4102B2F17F4F11D84FEA4003AB
:103BF000B3F17F4F0CD80ED14FEAD07CB2F17F4F9A
:103C00000CEB4C0C0CF1020C08BF4CEBD17C04E02B
:103C10004FF0080C01E04FEAD17C0CEB4C0324FA86
:103C200003F404F00704B4F1040C06D20EEB840C88
:103C3000BDE810404CF0010C6047DFE80CF00708CD
:103C400002024FF00040A0F5800010BD084642007F
:103C500018BFD2F1807288BF00F0004010BDFF2174
:103C600041EAD050C005704751EA000C00F11380C2
:103C70001CF5000F58BFBCF5000F01D481427047FE
:103C800007D711F5000F58BF10F5000F15D481426A
:103C90007047894270471CF5000F04D5BCF5000F32
:103CA000F7D5884270474FF0807C1CEB410F38BF3E
:103CB0001CEB400F01D28842704780EA010081EA84
:103CC000000180EA0100FFF7F8BE80F0004090EAB2
:103CD000010F7FF504AD81F0004100F008B800004D
:103CE00090EA010F48BF81F000413FF5F8AC421A5D
:103CF00004D882F00042A0EB020011444FEAD052F7
:103D00004FF07F4C1CEA410FA2EBD15318BF9CEA45
:103D1000026F4AD04FF0004C4CEA00204CEA0121DF
:103D200021FA03FCB0EB0C0C0FD412F0FE0F36D0CE
:103D30005FEA4C001DD5001240EBC25038BF7047FF
:103D40001CF03F0F18BF70470BE0A2F101025FEAC1
:103D50001C2040EBC25038BF70471CF07F0F18BFCB
:103D60007047C3F12003994014BF401E20F00100AA
:103D7000704780084FEA122308BF7047B0FA80FCF2
:103D8000A2EB0C02CCF1280C60FA0CF093EA122F93
:103D900004BF00EBC25070474FEAC3707047130A6C
:103DA0005FEADC1008BF7047F6E79CEA026F04D0B8
:103DB00010EA5C0F08BF0020704710B5FFF709FF3D
:103DC00040DFF63E81F0004070472C010001EE001C
:103DD000DA00C400AD0096007E0067003D003600AA
:103DE0003D0067007E009600AD00C400DA00EE00E2
:103DF00000012C0108000C00040006000200030072
:103E00000100090000020000283E00080000002018
:103E1000840000006C010008AC3E00088400002013
:103E20003CD8000088010008000000000000690183
:103E30000000000000000000000000000000000082
:103E4000A0AAAA43AA1A0000000001000000000076
:103E5000010000000000000014000000000000004D
:103E6000000000000000000000000600000000004C
:103E700000000000010000007F00000000000000C2
:103E80000000010000000000000000000000000031
:103E90000000000000000000000000000100000021
:0C3EA0000AD7233D0100000000000000D4
:0400000508000131BD
:00000001FF
